:10000000000002206D5200008B1D0000C71D000083
:1000100097200000DF220000032300000000000002
:10002000000000000000000000000000E7230000C6
:10003000172400000000000003290000B95300004D
:10004000355400003554000035540000355400008C
:10005000355400003554000035540000355400007C
:10006000355400003554000035540000355400006C
:10007000355400003554000035540000355400005C
:10008000355400003554000035540000355400004C
:10009000355400003554000035540000355400003C
:1000A000355400003554000035540000355400002C
:1000B0000D4400003554000035540000A1430000F9
:1000C00035540000B543000035540000C94300001A
:1000D00035540000355400003554000035540000FC
:1000E00035540000355400003554000035540000EC
:1000F000DD43000035540000F1430000355400009A
:10010000F14D0000314E00003F4E00004D4E00000A
:1001100035540000355400003554000035540000BB
:100120003554000035540000910E00003554000095
:10013000CB0D0000355400009D1300003554000025
:10014000355400003554000035540000355400008B
:10015000355400003554000035540000355400007B
:10016000355400003554000035540000355400006B
:10017000355400003554000035540000355400005B
:1003F000355400003554000035540000FFFFFFFF66
:10040000F8B5012000F0C0FC002811D1642000F0F4
:1004100019FD012000F0B8FC00281FD1DFF8B40856
:100420000088401EDFF8AC18088000F005FE15E0DB
:10043000032000F0A9FC002810D1642000F002FD88
:10044000032000F0A1FC002808D1DFF8880800880C
:10045000401CDFF88018088000F0EEFDDFF874081B
:10046000B0F90000002803D50620DFF868180880DE
:10047000DFF86008B0F90000072190FBF1F201FB02
:100480001200DFF850180880DFF84808B0F90000C3
:10049000002818D100F01DFF01F038F8DFF83828E7
:1004A0000021002000F0C5FEDFF830080278DFF8F8
:1004B0003018684601F0BCFA6A460121642000F059
:1004C0007FFE00F0FEBBDFF80C08B0F90000012849
:1004D00040F01381022000F057FC002810D1642066
:1004E00000F0B0FC022000F04FFC002808D1DFF83B
:1004F000F4070088401CDFF8EC17088000F09CFD32
:10050000DFF8E007B0F90000032190FBF1F201FBF6
:100510001200DFF8D0170880042000F035FC002816
:1005200040D1642000F08EFC042000F02DFC002857
:100530007DD1DFF8B007B0F9000000280ED1DFF858
:10054000A807D0E90223DFF8A407DFF8A41701F019
:100550008FFADFF89427C2E9020168E0DFF8840728
:10056000B0F9000001280ED1DFF87C07D0E90423A0
:10057000DFF87807DFF8781701F07AFADFF86827F4
:10058000C2E9040153E0DFF86007D0E90623DFF891
:100590005C07DFF85C1701F06BFADFF84C27C2E963
:1005A000060144E0002000F0EFFB00283FD164206A
:1005B00000F048FC002000F0E7FB002837D1DFF80E
:1005C0002407B0F9000000280ED1DFF81C07D0E99D
:1005D0000223DFF81807DFF81C1701F049FADFF8EB
:1005E0000827C2E9020122E0DFF8F806B0F90000AE
:1005F00001280ED1DFF8F006D0E90423DFF8EC067D
:10060000DFF8F01601F034FADFF8DC26C2E9040165
:100610000DE0DFF8D406D0E90623DFF8D006DFF8D6
:10062000D41601F025FADFF8C026C2E90601DFF88A
:10063000B806D0E902230020DFF8BC1601F0D4FA96
:1006400001F0A4FBDFF8B4160880DFF8B006B0F9BB
:100650000020DFF8AC16684601F0EAF96A4602218C
:10066000142000F0E6FDDFF88006D0E90423002026
:10067000DFF8841601F0B8FA01F088FBDFF87C1689
:100680000880DFF87806B0F90020DFF878166846B1
:1006900001F0CEF96A460421142000F0CAFDDFF80B
:1006A0004806D0E906230020DFF84C1601F09CFA3A
:1006B00001F06CFBDFF844160880DFF84006B0F963
:1006C0000020DFF84416684601F0B2F96A460621B8
:1006D000142000F0AEFDDFF834260021002000F0E9
:1006E000A8FD8AA2DFF8FC050088401CC0B24100CA
:1006F000C9B2002000F09DFDE3E2DFF8D805B0F9B3
:100700000000022840F0AF80022000F03DFB0028EE
:1007100010D1642000F096FB022000F035FB002889
:1007200008D1DFF8C0050088401CDFF8B815088044
:1007300000F082FCDFF8AC05B0F90000022190FB6C
:10074000F1F201FB1200DFF89C150880042000F094
:100750001BFB002821D1642000F074FB042000F072
:1007600013FB00283FD1DFF87C05B0F9000000281A
:1007700009D1DFF89C0500680A30DFF8941508609D
:1007800000F05AFC2FE0DFF88C0500680A30DFF833
:100790008415086000F050FC25E0002000F0F4FA19
:1007A000002820D1642000F04DFB002000F0ECFA7E
:1007B000002818D1DFF82C05B0F90000002809D175
:1007C000DFF84C0500680A38DFF84415086000F0CF
:1007D00033FC08E0DFF83C0500680A38DFF8341520
:1007E000086000F029FCDFF83005B0F90030DFF8D0
:1007F00020050268DFF82415684601F019F96A46F9
:1008000004210A2000F015FDDFF81405B0F90030CE
:10081000DFF800050268DFF80C15684601F008F9FA
:100820006A4606210A2000F004FDDFF8FC240021BE
:10083000002000F0FEFCB8A202211E2000F0F9FC0E
:10084000DFF8E8240221502000F0F3FCB3A2DFF827
:100850009404B0F900004000001D0100C9B200205E
:1008600000F0E7FC2DE2DFF86C04B0F9000003288B
:100870004ED1042000F088FA00280FD1642000F047
:10088000E1FA042000F080FA00281BD1DFF8A00470
:1008900000880A30DFF89814088013E0002000F088
:1008A00073FA00280ED1642000F0CCFA002000F08A
:1008B0006BFA002806D1DFF8780400880A38DFF8E0
:1008C00070140880DFF86804B0F90020DFF86414C1
:1008D000684601F0ADF86A460421142000F0A9FC36
:1008E000DFF85404B0F90020DFF85014684601F036
:1008F0009FF86A460221142000F09BFCDFF8402498
:100900000021002000F095FCDBE100BF2D3E00003F
:10091000DFF8C003B0F90000042840F0BD810220D8
:1009200000F032FA002810D1642000F08BFA022087
:1009300000F02AFA002808D1DFF8A8030088401C3C
:10094000DFF8A013088000F077FBDFF89803B0F918
:100950000000062190FBF1F201FB1200DFF8841386
:100960000880042000F010FA002878D1642000F0FC
:1009700069FA042000F008FA002840F0E080DFF86F
:100980006403B0F9000000280ED1DFF88403D0E939
:100990000223DFF85803DFF8581301F069F8DFF895
:1009A0007023C2E90201CAE0DFF83803B0F90000A1
:1009B00001280ED1DFF85803D0E90423DFF82C0317
:1009C000DFF82C1301F054F8DFF84423C2E90401E6
:1009D000B5E0DFF81003B0F9000002280ED1DFF80F
:1009E0003003D0E90623DFF80403DFF8041301F035
:1009F0003FF8DFF81C23C2E90601A0E0B948B0F9CE
:100A0000000003280BD1DFF80C03D0E90223B7481C
:100A1000B74901F02DF8BF4AC2E902018FE0B148A1
:100A2000B0F9000004280AD1BA48D0E90423AF483D
:100A3000AF4901F01DF8B74AC2E904017FE0A948B7
:100A4000B0F9000005287AD1B248D0E90623A748BA
:100A5000A74901F00DF8AF4AC2E906016FE0002096
:100A600000F092F900286AD1642000F0EBF9002030
:100A700000F08AF9002862D19A48B0F900000028F5
:100A80000AD1A348D0E9022398489A4900F0F0FF20
:100A90009F4AC2E9020152E09248B0F900000128E1
:100AA0000AD19B48D0E904239048924900F0E0FF26
:100AB000974AC2E9040142E08A48B0F900000228DE
:100AC0000AD19348D0E9062388488A4900F0D0FF2C
:100AD0008F4AC2E9060132E08248B0F900000328DB
:100AE0000AD18C48D0E902238048824900F0C0FF37
:100AF000884AC2E9020122E07A48B0F900000428DD
:100B00000ED18448D0E9042378487A4900F0B0FF38
:100B1000804AC2E9040112E0534554003E0000003F
:100B20007048B0F90000052809D17A48D0E90623B9
:100B30006E48704900F09CFF764AC2E9060174488D
:100B4000D0E9022300206C4901F04EF801F01EF9B3
:100B50006A4908806948B0F900206949684600F090
:100B600067FF6A4602210A2000F063FB6848D0E96B
:100B700004230020604901F037F801F007F95F49CC
:100B800008805E48B0F900205E49684600F050FFDA
:100B90006A4604210A2000F04CFB5D48D0E9062398
:100BA0000020554901F020F801F0F0F85349088081
:100BB0005248B0F900205449684600F039FF6A46AF
:100BC00006210A2000F035FB5248D0E9022300201C
:100BD000494901F009F801F0D9F848490880474827
:100BE000B0F900204649684600F022FF6A4602211B
:100BF000502000F01EFB4748D0E9042300203E4966
:100C000000F0F2FF01F0C2F83C4908803B48B0F91F
:100C100000203C49684600F00BFF6A460421502042
:100C200000F007FB3B48D0E906230020324900F0E2
:100C3000DBFF01F0ABF8314908803048B0F9002003
:100C40003149684600F0F4FE6A460621502000F063
:100C5000F0FA3C4A0021002000F0EBFA2148B0F9FC
:100C60000000401C400008280ADA17A21D4800882E
:100C7000401CC0B24100C9B2002000F0DAFA20E006
:100C800011A21848B0F900004000001F0100C9B2CD
:100C9000462000F0CEFA14E00E48B0F90000052816
:100CA00005D10AA20121282000F08AFA09E00948AA
:100CB000B0F90000062804D105A20121282000F087
:100CC0007FFA05B000BD00BF3E0000003500000007
:100CD00036000000A49B002038530000B09B002089
:100CE00008540000A69B0020D0000020FCA9F1D2EF
:100CF0004D62503F4D6250BF00408F40A89B002086
:100D0000105400001854000020540000D853000074
:100D1000F800002020010020A09B00204853000084
:100D2000A29B002058530000685300002854000084
:100D3000CC00002078530000AA9B002088530000BC
:100D400098530000A853000080B50123002207211A
:100D50003A4801F039F8012300220821374801F010
:100D600033F8012300220921344801F02DF8012332
:100D700000220C21314801F027F8012300220D2127
:100D80002E4801F021F801BD80B5C0B2002806D080
:100D900002280CD007D3042811D00CD313E047202D
:100DA00001F05DF810E0482001F059F80CE049200E
:100DB00001F055F808E04C2001F051F804E04D2016
:100DC00001F04DF800E0FF2002BD80B514201C4961
:100DD0000968C140C9070BD519490968012212FAEF
:100DE00000F00843164908600221002001F070F865
:100DF000152013490968C140C9070BD51049096876
:100E0000012212FA00F008430D4908600221012076
:100E100001F05EF816200A490968C140C9070BD5E0
:100E200007490968012212FA00F0084304490860E2
:100E30000221022001F04CF801BD000080F00F40BB
:100E4000A0A0044080B580B200F001F801BD01000F
:100E500089B200291BD01249096851F00101104ADA
:100E6000116000210F4A116080B21049086005200E
:100E70000D49086001200B4908600A480068000617
:100E8000FBD50848006840084000064908607047E4
:100E90000448006850F08000024908607047000074
:100EA000388004400000044004000440080004406E
:100EB00001000822DFF8C804006850F48010DFF851
:100EC000C0341860DFF8B804006830F08040DFF804
:100ED000B034186000BF00BF00BF00BF00BF00BF3C
:100EE00026E0DFF89C04006830F00050DFF8903412
:100EF000186009E00806F4D5DFF88404006850F0B3
:100F00000050DFF87C341860DFF87404006850F09B
:100F10008040DFF86C34186000BF00BF00BFDFF80E
:100F20006004006830F08040DFF8543418604900F5
:100F30001000421EC0B20028DCD170470100082218
:100F4000DFF83C04006830F48010DFF834341860B7
:100F5000DFF82C04006830F08040DFF8243418609B
:100F600000BF00BF00BF00BF00BF00BF29E0DFF827
:100F70001004006830F00050DFF80434186009E015
:100F80000806F4D5DFF8F803006850F00050DFF8E9
:100F9000F0331860DFF8E803006850F08040DFF8B5
:100FA000E033186000BF00BF00BF00BF00BF00BF3C
:100FB000DFF8CC03006830F08040DFF8C4331860FD
:100FC00049001000421EC0B20028D9D1704710B5A8
:100FD0000400B1F15000C0B2FFF7B0FF2000C0B272
:100FE000000950F01000C0B2FFF7A8FF14F00F0482
:100FF0002000FFF7A3FF10BD70B50400002509E035
:101000002000C0B2FFF754FF761C3000C0B2842825
:10101000F6DB6D1C2800C0B208280CDAB5F15000D0
:10102000C0B2FFF78BFF0120FFF788FF1020FFF70A
:1010300085FF0026E9E770BD38B5002408E00020F0
:10104000FFF736FF6D1C2800C0B28428F7DB641C54
:101050002000C0B208280CDAB4F15000C0B2FFF78B
:101060006DFF0120FFF76AFF1020FFF767FF0025E3
:10107000E9E731BD80B5012301221E21DFF800031D
:1010800000F0A2FE012301221D21DFF8F40200F08E
:101090009BFE012301221521DFF8E40200F094FEFB
:1010A000012301221421DFF8D80200F08DFE012374
:1010B00001221321DFF8C80200F086FE0520FFF7A9
:1010C000C1FEDFF8BC02006850F08040DFF8B012CB
:1010D0000860DFF8AC02006830F40020DFF8A012EE
:1010E0000860DFF89C02006830F40010DFF890120E
:1010F00008603220FFF7A6FEDFF88402006850F493
:101100000010DFF87C120860AE20FFF717FF002008
:10111000FFF714FF1020FFF711FF4020FFF70EFF2D
:101120008120FFF70BFFCF20FFF708FFA120FFF77B
:1011300005FFC820FFF702FFA620FFF7FFFEA8204B
:10114000FFF7FCFE3F20FFF7F9FED320FFF7F6FE86
:101150000020FFF7F3FED520FFF7F0FE8020FFF719
:10116000EDFED920FFF7EAFEF120FFF7E7FEDA20D7
:10117000FFF7E4FE1220FFF7E1FEDB20FFF7DEFEC3
:101180004020FFF7DBFE2020FFF7D8FE0220FFF70C
:10119000D5FE8D20FFF7D2FE1420FFF7CFFEA4204E
:1011A000FFF7CCFEA620FFF7C9FEAF20FFF7C6FE73
:1011B0000020FFF721FF00210020FFF708FF01BDFD
:1011C0002DE9F84304000D00160000200020002740
:1011D00014E0DFF8B0114A46D2B20620424301EBD8
:1011E00002004146C9B2405CFFF762FE18F10108F7
:1011F0004046C0B20628ECDBA41D7F1C3800C0B2FC
:10120000305C002813D03800C0B2305CB0F1200947
:101210002000C0B27F2801DB00246D1C2900C9B268
:101220002000C0B2FFF7D3FE5FF00008E0E7BDE8A2
:10123000F1832DE9F84304000D0016000020002082
:10124000002712E0DFF840014146C9B2090151FA16
:1012500089F10844007AFFF72BFE19F1010948468D
:10126000C0B20828EEDB08347F1C3800C0B2305C06
:1012700000282CD03800C0B2305CB0F1200820002B
:10128000C0B2792801DB00246D1C2900C9B22000FE
:10129000C0B2FFF79CFE5FF000090BE0DFF8E8004A
:1012A0004146C9B2090151FA89F1405CFFF700FEDD
:1012B00019F101094846C0B20828EFDB691CC9B220
:1012C0002000C0B2FFF783FE5FF00009C7E7BDE86A
:1012D000F18380B502211020FFF779FEFF20FFF790
:1012E000E7FD03211020FFF772FEFF20FFF7E0FD6E
:1012F00004211020FFF76BFEFF20FFF7D9FD052129
:101300001020FFF764FEFF20FFF7D2FD062110201A
:10131000FFF75DFEFF20FFF7CBFD07211020FFF751
:1013200056FEFF20FFF7C4FD02217020FFF74FFE9D
:10133000FF20FFF7BDFD03217020FFF748FEFF20CF
:10134000FFF7B6FD04217020FFF741FEFF20FFF7F5
:10135000AFFD05217020FFF73AFEFF20FFF7A8FD43
:1013600006217020FFF733FEFF20FFF7A1FD0721C4
:101370007020FFF72CFEFF20FFF79AFD01BD000053
:1013800000F10F40A046000028300000DFF800F018
:1013900039000020DFF800F07D00002080B5DFF884
:1013A000CC030068800425D5DFF8C003006850F442
:1013B0000050DFF8B8130860DFF8B403007879282C
:1013C00004DB0020DFF8A813087029E0BC22DFF856
:1013D000A413DFF89C030378BC2043431944042082
:1013E000FFF7D4FFDFF888030078401CDFF8801394
:1013F000087015E0DFF874030068400410D5DFF8CA
:101400006C03006850F48040DFF86013086000202F
:10141000DFF85C1308700120DFF85C130870FFE749
:1014200001BD80B50221012000F052FDDFF8480324
:101430000078002817D0FFF7ADFF00F018F8DFF8AC
:10144000340300F09FF9DFF834130870DFF82C0341
:101450000178DFF8200300F0C1FA00F007F900205E
:10146000DFF814130870DFF81803006802BD10B429
:1014700000200020002200200CE0DFF848355E2428
:1014800004FB00F423445B5C52FA83F2491C5E299E
:10149000F3DB401C3C2801DA0021F8E73C20B2FBDA
:1014A000F0F05E21B0FBF1F1C9B2072041430A2000
:1014B00091FBF0F00A30002000E0401C3C2823DAC9
:1014C00000215E29F9DADFF8B4221278DFF8F4346B
:1014D0005E2404FB00F423445B5C9A4209D3DFF8EA
:1014E000E824BC2303FB00F31A44002322F8113044
:1014F00008E0DFF8D424BC2303FB00F31A440123E3
:1015000022F81130491CDCE710BC704738B50020C8
:1015100000200020082498E00020DFF8AC242300FD
:10152000DBB2BC214B4302EB03012A00D2B231F8FB
:101530001210002901D050F00100DFF88C242300A4
:10154000DBB2BC214B4302EB03012A00D2B201EB18
:101550004201B1F8BC10002901D050F00200DFF8C0
:1015600068242300DBB2BC214B4302EB03012A00B9
:10157000D2B201EB4201B1F87811002901D050F04C
:101580000400DFF844242300DBB2BC214B4302EB10
:1015900003012A00D2B201EB4201B1F83412002952
:1015A00001D050F00800DFF820242300DBB2BC217A
:1015B0004B4302EB03012A00D2B201EB4201B1F826
:1015C000F012002901D050F01000DFF8FC232300B6
:1015D000DBB2BC214B4302EB03012A00D2B201EB88
:1015E0004201B1F8AC13002901D050F02000DFF81F
:1015F000D8232300DBB2BC214B4302EB03012A00BA
:10160000D2B201EB4201B1F86814002901D050F0C8
:101610004000DFF8B4232300DBB2BC214B4302EBD4
:1016200003012A00D2B201EB4201B1F824150029CE
:1016300001D050F08000C0B2FFF73AFC6D1C2800CA
:10164000C0B25E28FFF668AF08342000C0B2382868
:101650000BDA2000C0B2082190FBF1F1491CC9B29D
:101660001220FFF7B4FC0025E9E731BD10B40020DB
:10167000002308210EE0DFF85003BC2404FB01F432
:10168000204430F81200002800D05B1E521C2F2A84
:10169000F1DB491C182911DA2F220BE0DFF82803AF
:1016A000BC2404FB01F4204430F81200002800D0D0
:1016B0005B1C521C5E2AF1DB0022E8E7DFF80C031A
:1016C0000360002318210EE0DFF8FC02BC2404FBB9
:1016D00001F4204430F81200002800D05B1E521C98
:1016E0002F2AF1DB491C282911DA2F220BE0DFF821
:1016F000D802BC2404FB01F4204430F81200002876
:1017000000D05B1C521C5E2AF1DB0022E8E7DFF808
:1017100070000360002328210EE0DFF8AC02BC2437
:1017200004FB01F4204430F81200002800D05B1EB6
:10173000521C2F2AF1DB491C382911DA2F220BE029
:10174000DFF88402BC2404FB01F4204430F81200CA
:10175000002800D05B1C521C5E2AF1DB0022E8E767
:10176000DFF86C02036010BC70470000A0C00440AA
:10177000B19B002058010020B29B0020B09B0020AC
:10178000949B00202DE9F84F2DED0A8BC4B05FF03B
:1017900000095FF0000800270021002100215FF010
:1017A000000A002105E0002203AB0C0024B21A5508
:1017B000491C0A0012B2B2F5807FF4DB00211AE066
:1017C00003ABBC2411FB04F4044415002DB2645D8A
:1017D00003ADBC2611FB06F6064494460FFA8CFCBA
:1017E00016F80C60AD5D6D1C1D55521C13001BB22C
:1017F000BC2BE5DB491C0A0012B2782A01DA002270
:10180000F4E7002000E0401C010009B2B1F5807F40
:1018100005DA03A9020012B2895C0029F3D0FF2483
:1018200000E0641E0100220009B212B2914205DA02
:1018300003A9020012B2895C0029F2D02100020043
:1018400009B212B2914202D12000C0B2B5E001004B
:1018500009B2491C220012B2914201D1C0B2ACE0DF
:10186000010006E003AA0B001BB2D25C59FA82F910
:10187000491C22000B0012B21BB29A42F2DA002578
:10188000020008E003A913001BB2CB5C110009B2EF
:1018900001FB0355521C2100130009B21BB29942EF
:1018A000F0DA9FED4CCB06007EE003A8310009B2D0
:1018B000405C58FA80F8B9EB080B404600F0DEFBBC
:1018C000CDE90001484600F0D9FB02000B00DDE93C
:1018D000000100F0E1FB41EC180B584600F000FD60
:1018E000CDE90001484600F0C9FB02000B00DDE92C
:1018F000000100F0D1FB41EC190B03A8310009B243
:10190000415C300000B200FB0177E81B0290380018
:1019100000F0B4FBCDE90001404600F0AFFB02004F
:101920000B00DDE9000100F0B7FB41EC1A0B029857
:1019300000F0D6FCCDE90001584600F0D1FC0200D1
:101940000B00DDE9000100F0A7FB41EC1B0B53ECA1
:10195000182B51EC190B00F047F9CDE9000151ECBF
:101960001A0B53EC1B2B00F0CDFCDDE9002300F03B
:101970003BF9CDE9000151EC1A0B53EC1B2B00F0A5
:10198000C1FCDDE9002300F02FF941EC180B51EC0C
:101990001C0B53EC182B00F027FD04D2B0EE48CA04
:1019A000F0EE68CAB246761C3000210000B209B2DF
:1019B0008842FFF67AAF5046C0B244B0BDEC0A8B05
:1019C000BDE8F28F78590020806F0020909B0020A6
:1019D000989B0020000000000000F0BF30B40022FF
:1019E0000022002200E0521C782A1ADA0023BC2BC5
:1019F000F9DABC2404FB02F40444E45C0D00EDB20B
:101A0000AC4206D20024BC2505FB02F50544EC548B
:101A100005E0FE24BC2505FB02F50544EC545B1CE7
:101A2000E5E730BC70470268531C036011707047D3
:101A30000CB430B583B0044606A802900A460025CF
:101A40000194009502AB01A9084878441E3000F0CB
:101A5000E3FC01990D7000284EBF04460198041B59
:101A6000204603B030BC5DF80CFB00BFBBFFFFFF9E
:101A700070B44FF0004591EA030F40F14B846B4086
:101A8000841A71EB030604D26E40001BB141121997
:101A900073414FF4001C1CEB410F34BF7CEB430639
:101AA00082E00C0DA4EB1356362E7BDC012E45EAAA
:101AB000C32341DC43EA525312BFD20292025B08B5
:101AC000240545EAC12141EA5051D2EBC020994199
:101AD00025D407D1B0FA80F610FA06F162D00020C2
:101AE000203608E0B1FA81F6B140C6F1200220FAB2
:101AF00002F21143B0404FEAF474B4EB465434F0B0
:101B000001064FEA74040AD8D6F50016760D04F0E3
:101B10000044F04061FA06F25040F1404840C00AEB
:101B200040EA415021F0004128BF5FEA500550F1E2
:101B3000000044EBD12135E0DB0A45EAC121C90AA6
:101B4000B6F120050EDD42EA0242120CC5F1200674
:101B500003FA06F6EB4042EA06056D42984161F150
:101B600000010DE062FA06F5F240554063FA06FC0A
:101B700082EA0C02F3405A406D42904161EB03014E
:101B800011F4801F05D1641E620502D06D00404132
:101B9000494121F48011430875F1004350F10000E0
:101BA00041EB045170BC70471CEB410F15D223F080
:101BB000004352EA43060BD04FEA4C0CBCEB410FFA
:101BC00004D80C0D661E342EB7DDEBE7801A994160
:101BD00050EA410608BF0021E4E708BF1CEB430FB1
:101BE00028BF6FF00001DDE7B0B581EA030C0CF00F
:101BF000004C40F2FF7515EA11541DBF15EA13574A
:101C0000AC42AF4239E0E41923EA455343F4801370
:101C1000C90241F0004141EA505EC7021100A7FB32
:101C2000020200284FF00000EEFB01204FF00001FF
:101C3000E3FB072118BF42F001024018002149418F
:101C4000E3FB0E01A4F580640F0302D25200404171
:101C5000494154F101046CDD470872F1004250F132
:101C6000000051EB0451A1F580115CBF41EA0C0169
:101C7000B0BD4CEA05510020B0BD05EA1357AC4297
:101C800014BFAF4241E050EA410E1CBF52EA430E7E
:101C900002E061460020B0BD24423C441BD15FEA13
:101CA000070EF6D0090302BF01460020AEF1140E64
:101CB000B1FA81F7AEEB070401FA07FE0C37C7F162
:101CC000200100FA07F7C8404EEA000E23EA455308
:101CD00043F48013A2E733F00043B3FA83F704BF61
:101CE000B2FA82FE77440B3FE41BB7F1200E2FBF00
:101CF00002FA0EF3BB40C7F1200E22FA0EFE38BFE7
:101D000043EA0E03BA40641C82E750EA410E14BF56
:101D100052EA430E6FF000014FF4001717EB430F28
:101D20008ABF194617EB410FB5E74CEA0551002071
:101D3000B0BDD4F10104B4F120070FDAC4F12007DB
:101D4000520828BF42F0010210FA07F501FA07F71E
:101D5000E1BF2A43E0403843E1400FE0352C98DCF6
:101D6000C7F1200452EA400220FA07F218BF42F0FD
:101D7000010231FA07F0A1400A43002172F100424A
:101D800050F1000051EB0C01B0BDFEE7C1F30A5366
:101D900040F2FE329B1A14DDD3F120034FEAE172C8
:101DA00008DDC90241EA505141F00040D840801896
:101DB0005040704703F2E13010B1D24382F000404E
:101DC000704700207047FEE770B42C4C246854F430
:101DD00078542A4D2C600500294EAD1B08D0403D9B
:101DE00008D0403D08D0403D08D0403D08D009E033
:101DF000244C07E0244C05E0244C03E0244C01E093
:101E0000244CFFE74FF4807544F82150D2B2012AE8
:101E100015D1426901248C4022434261012B06D135
:101E20000268012313FA01F1114301600EE0026818
:101E3000012313FA01F132EA0101016006E042696F
:101E4000012313FA01F132EA0101416170BC7047CC
:101E50000268012313FA01F151400160704701004B
:101E60000D480A00D2B2521150F82200006911F058
:101E70001F01C84010F00100704700003880044086
:101E800000F00F400090044000A0044000B0044067
:101E900000C0044000D004400800002080B50023AA
:101EA000012208217448FFF78FFF00230122092136
:101EB0007148FFF789FF002301220A216E48FFF7CE
:101EC00083FF002301220B216B48FFF77DFF01BD3B
:101ED00080B5C0B2002808D0012824D002285ED0E6
:101EE00003283ED0062878D0C5E00800C0B20028FC
:101EF00006D16148006830F480705F49086011E0E5
:101F00000800C0B2012806D15B48006850F4807018
:101F10005949086006E0C9B2022903D10821564890
:101F2000FFF796FFA7E00800C0B2002806D152488C
:101F3000006830F400705049086011E00800C0B239
:101F4000012806D14C48006850F400704A490860E6
:101F500006E0C9B2022903D109214748FFF778FFFB
:101F600089E00800C0B2002806D14348006830F478
:101F700080604149086011E00800C0B2012806D124
:101F80003D48006850F480603B49086006E0C9B2F3
:101F9000022903D10A213848FFF75AFF6BE00800F5
:101FA000C0B2002806D13448006830F400603249DD
:101FB000086011E00800C0B2012806D12E48006870
:101FC00050F400602C49086006E0C9B2022903D130
:101FD0000B212948FFF73CFF4DE00800C0B2002864
:101FE00018D12548006830F48070234908602248E1
:101FF000006830F40070204908601F48006830F421
:1020000080601D4908601C48006830F400601A496F
:1020100008602FE00800C0B2012818D116480068F7
:1020200050F48070144908601348006850F4007040
:10203000114908601048006850F480600E4908603B
:102040000D48006850F400600B49086012E0C9B206
:1020500002290FD108210848FFF7FAFE0921064896
:10206000FFF7F6FE0A210448FFF7F2FE0B210248B3
:10207000FFF7EEFEFFE701BD40F00F40014648B11B
:10208000B0FA80F18840C91CC1F58461090501EBF3
:10209000D02140057047FEE7F0B540F2FF7581EAB8
:1020A000030C0CF0004C15EA11541DBF15EA135730
:1020B000AC42AF42E5E0BC41C1F31301C3F31303EB
:1020C000801A994143F4801304D2641E40004941B0
:1020D00080185941C90241EA5051B1FBF3F603FBA4
:1020E0001611A2FB0675D7EBC020A94102D2761EBD
:1020F00080185941C90241EA5051B1FBF3FE03FB7C
:102100001E11A2FB0E75D7EBC020A94103D2AEF180
:10211000010E80185941890241EA9051760546EA3C
:102120008E2EB1FBF3F603FB1611A2FB0675D7EB5F
:102130008020A94102D2761E80185941C90241EA85
:1021400050514EEA060EB1FBF3F603FB1611A2FB4B
:102150000675D7EBC020A94102D2761E80185941DE
:10216000C90241EA5051B1FBF3F703FB1711A2FB7F
:102170000735D3EBC020A94167F100070CBF00422F
:1021800047F0010766F3D5274FEA1E31B80814F56A
:10219000806412DDBD0775F1004250EB0E5051EB2B
:1021A000045111F5801F5CBF41EA0C01F0BD4CF0F9
:1021B0007F6141F0E0410020F0BDBD076D0840EABD
:1021C0000E5041F48011D4F10104B4F120060ADA72
:1021D000C4F120060200E04001FA06F3E140184392
:1021E000B24015430EE0342C13DCC6F1200445EA5E
:1021F00040056D0820FA06F2154321FA06F0A140C9
:102200000D43002175F1004250F1000051EB0C012B
:10221000F0BD00205FEA0C01F0BDCFB992185B4120
:10222000B3FA83F704BFB2FA82F6BF190B3FB7F1D6
:1022300020062FBF02FA06F3BB40C7F1200622FAA0
:1022400006F638BF3343BA401CB1E419641E33E7C5
:102250007F4231F00041B1FA81F404BFB0FA80F658
:10226000A4190B3CB4F120062FBF00FA06F1A140DF
:10227000C4F1200620FA06F638BF3143A0403C1BCB
:102280001AE7AC421ABF05EA1357AF4212E050EA10
:1022900041061CBF52EA4306BFE750EA41073046F9
:1022A00061461CBF41EA0551F0BD52EA430C08BF2C
:1022B000C143F0BD00204FF4001616EB410F98BF4C
:1022C00016EB430F08BF16EB410F24BFC14305E0D7
:1022D00016EB430F0CBF61464CEA0551F0BDFEE71B
:1022E000C11768B14840401AB0FA80F29040D21C41
:1022F000C907C2F5846241EA025202EBD0214005CF
:102300007047FEE770B44FF0004591EA030F7FF588
:10231000B7AB6B40841A71EB030603D2001BB141CB
:10232000121973414FF4001C1CEB410F34BF7CEBBE
:10233000430442E00C0DA4EB1356352E4FDC45EA66
:10234000C323DB0A45EAC121C912B6F120050DDD20
:1023500063FA05F6EB4086EA0305124218BF45F022
:102360000105C01851F100010CD213E062FA06F524
:10237000F2405540F3415A40B340F3405A40801870
:10238000594107D349085FEA30005FEA350528BFA5
:1023900045F0010501F58011420875F1004250F148
:1023A000000041EB04514E0016F5001F70BC38BF11
:1023B00070470020090D090570471CEB410F10D232
:1023C00052EA43060BD0BCEB410F05D80C0DAB43D2
:1023D000661E342EB6DD02E0AB438018594170BC56
:1023E000704770BC7047FEE74FF4001C1CEB410FB8
:1023F00094BF1CEB430F09E041EA030C50EA4C0C7C
:1024000052EA0C0C03D2994208BF9042704714BFA5
:102410008B4282427047FEE72DE9F84F92B0814629
:102420001C98DFF80C828DF82F00154600209A4684
:10243000029108900FF290464FF0FF370CE02528EC
:102440000FD015F8011B0298C8470028029000F031
:10245000D8800898401C089028780028EFD1089868
:10246000E8E00020002105900691079001E041F08E
:10247000010115F8010F2028F9D023280CD02B28B2
:1024800004D02D2805D0302809D0BCE041F002014D
:10249000EFE741F00401ECE741F00801E9E741F022
:1024A0001001E6E700200A9009E00A98404505DAA5
:1024B00000EB800302EB4302303A0A926D1C2A784B
:1024C000A2F130000A28F0D328782E2818BF0997E7
:1024D00026D115F8010F2A280AD1DAF80000CAF827
:1024E00000006D1C50F8042BCAF80000099217E098
:1024F0002D280CBF15F8010B0020002209920AE0DC
:1025000040B9099A424505DA02EB820403EB440321
:10251000303B09936D1C2B78A3F130020A2AEFD3CC
:10252000ADF82C103046297800F0E0F908B115F824
:10253000010B8DF82E009DF82E00682804BF297825
:10254000682903D162208DF82E006D1C0CA8049020
:10255000524615F8013B01A9484600F099F80028B9
:102560004FD10A980599079A069C401A801A041BB5
:102570009DF82C0041070FD42021002C8DF800106D
:102580000ADDA34601236A4601A9484600F085F901
:10259000B8BBBBF1010BF5D1059B0CAA01A94846BC
:1025A00000F07BF968BBDDF81CB03020BBF1000FF8
:1025B0008DF8000009DD01236A4601A9484600F0B4
:1025C0006CF9F0B9BBF1010BF5D1069B039A01A997
:1025D000484600F062F9A0B99DF82C0041077FF54C
:1025E0003BAF2021002C8DF800107FF735AF012381
:1025F0006A4601A9484600F050F910B9641EF6D1A8
:102600002AE7384616E02A287FF44CAFDAF8002093
:10261000CAF8002052F8040BCAF8002000280A90DB
:1026200003D540420A9041F004016D1C4CE70000C4
:10263000CBCCCC0C13B0BDE8F08F62280ED068284C
:1026400019D1002A0A680A60106803D0121D0A60B6
:1026500000B217E0121D0A6080B217E0002A0A6873
:102660000A60106803D0121D0A6040B20AE0121D11
:102670000A60C0B20AE0002A0A680A60106803D043
:10268000121D0A60C1177047121D0A6000217047B1
:1026900070B51C460D46252CEE68114600F084806E
:1026A000582C37D0632C0ED0642C18BF692C14D052
:1026B0006F2C2FD0702C49D0732C53D0752C18BF91
:1026C000782C27D076E02869421C2A610A680A60C3
:1026D00052F8043B0A60335476E095F82A00012250
:1026E000FFF7ABFF0028286004D52869411C296149
:1026F0002D210DE0288D810704D52869411C296111
:102700002B2105E0C0071CD52869411C2961202127
:10271000315416E095F82A000022FFF78EFF28605A
:1027200095F8281008070CD5286850B144F020010E
:10273000782906D1286930213154401C411C296177
:102740003454214628693044A86007E008680860CE
:1027500050F8042B08602A60AE607821284600F00B
:1027600035F831E00868086050F8044B0860AC6048
:102770003CB900BF56A000F0C5F84FF0FF34201A56
:1027800070BD2E6A002E04D5204600F0DBF804460A
:1027900008E032460021204600F0F0F8002814BF7F
:1027A000041B34466C610FE02869411C2961252116
:1027B000315409E02969481C2861252272542100FE
:1027C00002D0411C29613454002070BDF0B402468F
:1027D0006F29D46808BF082605D041F0200078286A
:1027E00014BF0A26102618251768642918BF6929FE
:1027F000384602D1002F48BF4042F0B9136AE3B90E
:10280000082E39D192F82800010735D53020172538
:10281000E07531E000280ED592F8280000F0140091
:10282000102808D1536A10691B1A90691B1A591A8B
:102830000129A8BF9161F0BC7047B0FBF6F706FB19
:10284000170030306D1EC3B23A2BA4BFA1F1510363
:1028500018186055380003D093686719BB42ECD351
:10286000082E09D192F82800010705D5615D3029AD
:1028700002D06D1E3020605560199060C5F11801BE
:10288000106A51618142C5DA411A91614FF6EF70C9
:10289000118D01401185F0BC7047F8B505460E4614
:1028A00017461C46002074B117F8011B7068A84732
:1028B000706030B1F069401CF0610020641EF3D1FB
:1028C000F2BD4FF0FF30F2BD686C747A4C0000002E
:1028D0007072696E74665F733A206261642025735A
:1028E00020617267756D656E740000000278C9B270
:1028F0008A421AB11CBF10F8012FF9E718BF002057
:102900007047FEE780B500B906A005490B681BB10A
:1029100022220021984701E000F05CF8222002BD4D
:102920009C9B0020636F6E73747261696E74206883
:10293000616E646C65723A20626164206D657373C8
:102940006167650000F10103810704D010F8011BE5
:1029500089B18107FAD10268B2F10131914311F0D6
:10296000803F04BF50F8042FF6E710F8011B11B1A7
:1029700010F8011BFBE7C01A70470000C9B28307BB
:1029800006D0521E22D310F8013B9942F7D11FE026
:10299000083A13D302F1040241EA012141EA01415C
:1029A00050F8043B121F21BF4B40A3F1013C2CEA1D
:1029B000030C1CF0803FF3D0C9B2001F083210F89E
:1029C000013B521E28BF91EA030FF8D818BF01201F
:1029D000401E7047012000F001B8000080B5AFF341
:1029E0000080024A11001820ABBEFBE7260002005F
:1029F00030B40400DFF8AC55AC4200F08E80DFF854
:102A0000A855AC4208D0DFF8A455AC424DD0DFF851
:102A1000A055AC4265D09DE0DFF89845246854F09D
:102A20008074DFF890552C600C00E4B2002C0BD0C1
:102A3000022C15D00ED3042C1ED017D3062C27D071
:102A400020D3072C2AD02FE04FF48064DFF868559C
:102A50002C607FE04FF48064DFF860552C60F8E76D
:102A60004FF48064DFF858552C60F2E74FF480642F
:102A7000DFF850552C60ECE74FF48064DFF84855E0
:102A80002C60E6E74FF48064DFF840552C60E0E707
:102A90004FF48064DFF838552C60DAE74FF4806437
:102AA000DFF830552C60D4E773E0DFF80845246880
:102AB00054F00074DFF8FC542C600C00E4B2002CDD
:102AC00002D0012C06D00BE04FF44074DFF808551B
:102AD0002C603FE04FF44074DFF800552C60F8E7BD
:102AE00057E0DFF8D044246854F08064DFF8C45421
:102AF0002C600C00E4B2002C02D0012C06D00BE0BC
:102B00004FF44074DFF8D8542C6023E04FF4407445
:102B1000DFF8D0542C60F8E73BE0DFF8CC442468C1
:102B200054F00074DFF8C0542C600C00E4B2002CA8
:102B30000BD0022C35D02ED3042C3ED037D3062C0C
:102B400047D040D3072C4AD04FE04FF4C064DFF8A1
:102B50009C542C600C00E4B200EBC404E46834F034
:102B600004040D00EDB200EBC505EC6028240D0057
:102B7000EDB200EBC505EC600C24046092B28260FB
:102B80000022C2649BB2C9B200EBC1010B610021FB
:102B9000416030BC70474FF4C064DFF854542C607F
:102BA000D8E74FF4C064DFF84C542C60D2E74FF400
:102BB000C064DFF844542C60CCE74FF4C064DFF805
:102BC0003C542C60C6E74FF4C064DFF834542C60EA
:102BD000C0E74FF44074DFF82C542C60BAE74FF490
:102BE0004074DFF824542C60B4E7D2E730B404001A
:102BF000DFF8B053AC4200F08E80DFF8AC53AC424B
:102C000008D0DFF8A853AC424DD0DFF8A453AC4253
:102C100065D09DE0DFF89C43246854F08074DFF8B1
:102C200094532C600C00E4B2002C0BD0022C15D075
:102C30000ED3042C1ED017D3062C27D020D3072C5C
:102C40002AD02FE04FF48064DFF86C532C607FE0D3
:102C50004FF48064DFF864532C60F8E74FF480642D
:102C6000DFF85C532C60F2E74FF48064DFF85453D4
:102C70002C60ECE74FF48064DFF84C532C60E6E7FF
:102C80004FF48064DFF844532C60E0E74FF4806435
:102C9000DFF83C532C60DAE74FF48064DFF83453FC
:102CA0002C60D4E773E0DFF80C43246854F0007420
:102CB000DFF800532C600C00E4B2002C02D0012C91
:102CC00006D00BE04FF44074DFF80C532C603FE06B
:102CD0004FF44074DFF804532C60F8E757E0DFF856
:102CE000D442246854F08064DFF8C8522C600C0091
:102CF000E4B2002C02D0012C06D00BE04FF440745B
:102D0000DFF8DC522C6023E04FF44074DFF8D4523B
:102D10002C60F8E73BE0DFF89C42246854F0400464
:102D2000DFF890522C600C00E4B2002C0BD0022C87
:102D300035D02ED3042C3ED037D3062C47D040D3E9
:102D4000072C4AD04FE04FF4C064DFF8A0522C604B
:102D50000C00E4B200EBC404E46834F004040D0099
:102D6000EDB200EBC505EC6028240D00EDB200EBE0
:102D7000C505EC600F24046092B282600022C26438
:102D80009BB2C9B200EBC1010B610021416030BCB4
:102D900070474FF4C064DFF858522C60D8E74FF406
:102DA000C064DFF850522C60D2E74FF4C064DFF803
:102DB00048522C60CCE74FF4C064DFF840522C60DE
:102DC000C6E74FF4C064DFF838522C60C0E74FF418
:102DD0004074DFF830522C60BAE74FF44074DFF8EB
:102DE00028522C60B4E7D2E70100DFF8B821914205
:102DF0002ED0DFF8B821914204D0DFF8B4219142FF
:102E000013D055E0DFF8AC11096851F00071DFF81C
:102E1000A42111604FF4E061DFF8F02111604FF45C
:102E2000E061DFF8EC21116042E0DFF88811096809
:102E300051F08061DFF87C2111604FF4C061DFF850
:102E4000A02111604FF4C061DFF8982111602FE0DC
:102E5000DFF89411096851F04001DFF88C2111600E
:102E60004FF4C061DFF8842111604FF4C061DFF8D6
:102E7000802111604FF4C061DFF8782111604FF4B8
:102E8000C061DFF8742111604FF4C061DFF86C217C
:102E900011604FF4C061DFF8682111604FF4806168
:102EA000DFF8602111604FF48061DFF85C21116070
:102EB000416D51F004014165D0F8801051F00801D6
:102EC000C0F880100021C1644FF6FF718160D0F816
:102ED000801051F00101C0F88010416D51F00101E6
:102EE00041650021416070470100486800224A6046
:102EF00000B2704780B500234FF47A7200212A484F
:102F0000FFF776FD00234FF47A7201212648FFF780
:102F10006FFD00234FF47A7202212348FFF768FD0A
:102F200000234FF47A7203211F48FFF761FD01BDB2
:102F300080B54FF41B7344F6206207211948FFF750
:102F400055FE4FF41B7344F6206206211548FFF727
:102F50004DFE01BD80B2062810D007281DD10129E1
:102F600005DB2C48016000202B49086005E0494240
:102F7000294801600020274908600EE0012905DB8F
:102F80002648016000202649086005E0494224489F
:102F90000160002021490860FFE77047214908606F
:102FA0007047000000600240008003400090034032
:102FB00000A003403C80044004B0044008B004403A
:102FC0000CB0044010B0044010C0044014C00440D1
:102FD00018C004401CC004402090044024900440C9
:102FE00048A004404CA004403080044014D0044069
:102FF00018D004401CD0044020D0044024D0044009
:1030000028D0044028B004402CB004403090044044
:103010003490044010800340188003402080034017
:1030200028800340486002400000000000000000CB
:103030000000000000000000000000F80000000098
:10304000000000333000000000100C06100C0600D9
:10305000000000000000000040C07840C078400040
:10306000043F04043F040400007088FC08300000A2
:10307000001820FF211E0000F008F000E0180000FA
:1030800000211C031E211E0000F0088870000000B3
:103090001E2123241927211010160E000000000005
:1030A0000000000000000000000000E01804020022
:1030B000000000071820400000020418E000000093
:1030C0000040201807000000404080F08040400091
:1030D0000202010F01020200000000F000000000E7
:1030E0000101011F010101000000000000000000BB
:1030F00080B0700000000000000000000000000030
:1031000000010101010101010000000000000000B8
:103110000030300000000000000000008060180453
:10312000006018060100000000E010080810E00030
:10313000000F102020100F00001010F800000000F9
:103140000020203F20200000007008080888700040
:1031500000302824222130000030088888483000C0
:103160000018202020110E000000C02010F80000E0
:1031700000070424243F240000F808888808080079
:103180000019212020110E0000E01088881800008E
:10319000000F112020110E0000380808C838080060
:1031A0000000003F000000000070880808887000E0
:1031B000001C222121221C0000E010080810E00061
:1031C0000000312222110F00000000C0C0000000EA
:1031D000000000303000000000000080000000000F
:1031E0000000806000000000000080402010080007
:1031F00000010204081020004040404040404000D0
:1032000004040404040404000008102040800000AA
:103210000020100804020100007048080808F000AF
:103220000000003036010000C030C828E810E0007F
:103230000718272423140B000000C038E00000000A
:10324000203C23020227382008F888888870000074
:10325000203F202020110E00C03008080808380048
:10326000071820202010080008F808080810E000BF
:10327000203F202020100F0008F88888E808100060
:10328000203F20202320180008F88888E808100034
:10329000203F200003000000C0300808083800006C
:1032A00007182020221E020008F808000008F8086D
:1032B000203F210101213F20000808F808080000F4
:1032C0000020203F2020000000000808F808080027
:1032D000C08080807F00000008F888C0281808009F
:1032E000203F20012638200008F8080000000000D8
:1032F000203F20202020300008F8F800F8F80800CF
:10330000203F003F003F200008F830C00008F808C8
:10331000203F200007183F00E01008080810E000D8
:103320000F10202020100F0008F808080808F000EF
:10333000203F210101010000E01008080810E00012
:103340000F18242438504F0008F8888888887000A7
:10335000203F2000030C3020007088080808380047
:103360000038202121221C00180808F8080818003D
:103370000000203F2000000008F808000008F808BE
:10338000001F202020201F000878880000C838086F
:10339000000007380E010000F80800F80008F800E7
:1033A000033C0700073C0300081868808068180881
:1033B00020302C03032C30200838C800C8380800FF
:1033C0000000203F2000000010080808C83808004E
:1033D0002038262120201800000000FE02020200F2
:1033E0000000007F40404000000C30C000000000A2
:1033F000000000010638C00000020202FE000000CA
:10340000004040407F00000000000402020204006F
:1034100000000000000000000000000000000000AC
:103420008080808080808080000202040000000094
:10343000000000000000000000008080808000008C
:103440000019242222223F2008F80080800000007A
:10345000003F112020110E0000000080808000003D
:10346000000E112020201100000000808088F8004C
:10347000000E112020103F2000008080808000007E
:10348000001F222222221300008080F088888818E2
:103490000020203F202000000000808080808000ED
:1034A000006B94949493600008F800808080000082
:1034B000203F210000203F2000809898000000005D
:1034C0000020203F2020000000000080989800008D
:1034D00000C08080807F000008F8000080808000AD
:1034E000203F24022D302000000808F800000000D2
:1034F0000020203F2020000080808080808080008D
:10350000203F20003F20003F80800080808000001E
:10351000203F210000203F200000808080800000AC
:10352000001F202020201F008080008080000000DD
:1035300080FFA12020110E0000000080808080000C
:10354000000E112020A0FF808080800080808000FD
:1035500020203F212000010000008080808080002A
:103560000033242424241900008080E0808000009F
:103570000000001F202000008080000000808000EC
:10358000001F202020103F2080808000008080804D
:1035900000010E30080601008080008000808080DD
:1035A0000F300C030C300F00008080008080800002
:1035B0000020312E0E31200080808000008080802D
:1035C00080818E70180601000080808080808000DD
:1035D0000021302C2221300000000000807C0202FB
:1035E00000000000003F404000000000FF0000001D
:1035F00000000000FF0000000002027C80000000CC
:103600000040403F000000000006010102020404E7
:103610000000000000000000811DDFF8B404014339
:103620000878C0B27047801D50F090500078C0B24A
:103630007047801D50F080500078C0B270478901FB
:10364000001D50F0985001707047801D50F0985048
:103650000078C0B2002801D0012000E00020C0B2F4
:103660007047801D50F094500078C0B2002801D0FF
:10367000012000E00020C0B27047801D50F084504F
:103680000078C0B2002801D0012000E00020C0B2C4
:1036900070472DE9F04106004FF400773000FFF746
:1036A000BBFF80463000FFF7BEFF0400701C50F0E7
:1036B000845005783000FFF7D4FF5FFA88F8B8F13E
:1036C000000F07D0B8F1020F1BD00DD3B8F1030FD4
:1036D00026D02DE0C0B2002805D1E4B2002C01D1E3
:1036E000082700E0012723E0E4B2012C08D1C0B292
:1036F000002805D1EDB2002D01D1022700E00427FA
:1037000016E0E4B2002C0AD1EDB2002D06D1C0B211
:10371000002801D0402702E0102700E0202707E022
:10372000E4B2002C03D1C0B2002800D08027FFE70C
:10373000380000B2BDE8F0812DE9F04105000E002F
:10374000170000240020E91C51F09C51087028004B
:10375000FFF769FF002805D195F8038098F0200055
:10376000E8700124287810F03B0050F00400287025
:103770002800FFF758FF0128FAD1E4B2002C01D04D
:1037800085F803802800FFF747FF0028FAD1E87882
:1037900010F09F00710111F060010843E870E91C0E
:1037A000CC48014308783100C0B2C9B28842F6D192
:1037B0003800002800D0B8470020BDE8F0812DE98E
:1037C000F041050090461E0000242800FFF72BFF63
:1037D000012804D1EF7897F02000E87001242878C0
:1037E00010F003005FEAC80818F0380858EA00082B
:1037F00085F80080681C50F088500078C0B200281E
:1038000004D02800FFF739FF0028FAD02800FFF77E
:103810000AFF0028FAD1E4B2002C00D0EF7006991C
:10382000E87810F01F0050EAC6104A0112F060025A
:103830001043E870EA1CA748024310780A00C0B29F
:10384000D2B29042F6D12800FFF7E6FE0028FAD166
:1038500007980100002900D080470020BDE8F081D2
:103860002DE9F84305000E001700984600240020BB
:10387000E91C51F09C5108702800FFF7D4FE002885
:1038800005D195F8039099F02000E870012428787C
:1038900010F03B0050F0440028702800FFF7C3FEF2
:1038A0000128FAD1E4B2002C01D085F80390380049
:1038B000C0B2012804D14146C9B2280000F0D2F9B3
:1038C000697811F0FC0117F00100014369702800CC
:1038D000FFF7AFFE3900C9B28842F8D1E87810F09E
:1038E0009F00710111F060010843E870E91C7948FC
:1038F000014308783100C0B2C9B28842F6D128002D
:10390000FFF78AFE0128FAD108980100002900D0AB
:1039100080470020BDE8F2832DE9F0410500170043
:103920001E0000240020691D51F0985108702800E5
:10393000FFF797FE0028FAD10020691C51F084514E
:1039400008702800FFF76FFE012805D195F8038065
:1039500098F02000E8700124287810F00300FF00A0
:1039600017F03807074357F080072F702800FFF73C
:103970005AFE0028FAD1E4B2002C01D085F8038069
:10398000681C50F088500078C0B2002804D028008D
:10399000FFF773FE0028FAD00699E87810F01F00B0
:1039A00050EAC6104A0112F060021043E870EA1CA7
:1039B0004848024310780A00C0B2D2B29042F6D111
:1039C0002800FFF729FE0228FAD1079801000029F4
:1039D00000D080470020BDE8F08138B50400150014
:1039E0002800C0B2012803D1C9B2200000F03AF982
:1039F000617811F0FE0115F00100014351F0020160
:103A000061702000FFF715FE2900C9B28842F8D185
:103A1000002032BD80B50222431C53F084531A703B
:103A2000C9B200F091F8002002BD70B504000E008C
:103A30001D000020611C51F084510870802026492F
:103A4000214308702000FFF7E7FD0228FAD131007A
:103A5000C9B2200000F078F800212000FFF7EFFD48
:103A60000020611D51F0985108702000FFF7F9FD0A
:103A70000028FAD10498217911F0F80115F0070512
:103A80000D432571617911F0E00110F01F0008432A
:103A900060714020611D51F0985108702000FFF7BF
:103AA000E0FD0128FAD12000FFF7CFFD0028FAD071
:103AB000002070BD10B504000020074921430870A4
:103AC0002000FFF7A9FD0328FAD1002010BD000057
:103AD000000010110000901200001013811DDFF88B
:103AE000180301430878C0B27047401C50F0805062
:103AF00001707047801D50F080500078C0B2704750
:103B0000801D50F098500078C0B2002801D00120EC
:103B100000E00020C0B27047801D50F09450007843
:103B2000C0B2002801D0012000E00020C0B27047E0
:103B3000801D50F084500078C0B2002801D00120D0
:103B400000E00020C0B2704710B50400601C50F0C7
:103B500088500078C0B2002804D02000FFF7E8FFAA
:103B60000028FAD010BDDFF8940200687047D140F9
:103B7000DBB2002B13D0D2B2002A052A04D9921F3F
:103B800004D0521E06D009E0490908E01420B1FB18
:103B9000F0F104E00C20B1FBF0F100E0002108009E
:103BA00070471CB5040054F088500078C0B200285B
:103BB00014D12000FFF7D7FF010054F08D50027898
:103BC000631CDFF83C0203431B780020C0B2009066
:103BD000DBB2D2B22000FFF7CAFF02E0DFF8240216
:103BE000006816BD10B41000C0B2002805D048F21D
:103BF000010081420AD3002012E047F61220081A81
:103C000041F68664A04201D3002009E0DFF8F80104
:103C1000DBB200EB8300D2B230F81200414308005F
:103C200010BC704710B504002000FFF775FF002896
:103C300001D0002015E02000FFF7B3FF01000029AC
:103C400001D100200DE0E01C50F09C500278E31CF4
:103C5000DFF8B80103431B78DBB2D2B22000FFF7D4
:103C6000C1FF10BD38B504000D0014F1080050F07C
:103C7000855000782900C0B2C9B2884229D0601CA2
:103C800050F080500078C0B2002808D1207A10F09F
:103C9000D0006D0015F00E050543257219E00021D6
:103CA0002000FFF722FF2000FFF724FF0028FAD1B1
:103CB000207A10F0D0006D0015F00E050543257236
:103CC00001212000FFF711FF2000FFF713FF01285B
:103CD000FAD131BD80B5FFF746FF02BD10B5040033
:103CE000A01D50F094500078C0B2002808D1201DCB
:103CF00050F098500078C0B2002801D1002012E0A6
:103D00002000FFF7E7FF211D51F081510978491C80
:103D1000C9B2B0FBF1F0611D51F082510978103148
:103D2000C9B24843400810BD10B50400607910F0D6
:103D3000E00012F01F0202436271207910F0D800F7
:103D400050EA431011F00701014351F04001217185
:103D50002000FFF7D5FE0028FAD010BD010051F079
:103D600084500078C0B2002801D1002010E0481C27
:103D700050F080500078C0B2002802D1214800687D
:103D800006E023480068083151F085510978C840A1
:103D9000704710B504002000FFF7A0FEC0B2002855
:103DA00008D002280ED009D303280FD12000FFF736
:103DB00095FF0CE02000FFF735FF08E02000FFF73B
:103DC000CDFF04E02000FFF7CEFE00E0002010BD94
:103DD00010B4447814F0C304090111F030012143F8
:103DE000D20012F0080211439B0013F004031943A0
:103DF000417010BC70470000000010114C01002001
:103E0000000010120400002018530000000090125F
:103E1000000000208901DFF8F42210430170704790
:103E2000811DDFF8EC0201430878C0B270474900F9
:103E300050F084500170704750F08050017070470E
:103E4000401C50F0805001707047801D50F0805031
:103E50000078C0B270478901001D50F09850017081
:103E60007047801D50F084500078C0B2002801D007
:103E7000012000E00020C0B27047C90150F09C5002
:103E800001707047490150F09450017070478901EA
:103E9000821CDFF8780202431170704747F23051FC
:103EA00000E000BF0800411E0028FAD1704738B575
:103EB00004000025200000B2B0F5807F09DB4FF43C
:103EC00043729449944800F033F9AFF3008000E066
:103ED0006D1C200000B2E840C007F9D52800C0B230
:103EE00032BD2DE9FC410400002500268C48FFF777
:103EF000D0FB00B2FFF7DBFF8046B4F90000FFF70C
:103F0000D6FF070087485FFA88F800EBC800390041
:103F1000C9B210F801804046C0B200280BD0022878
:103F200030D01AD3042821D00BD3062836D02FD373
:103F3000072850D053E0794AE1797948FFF7FCFB34
:103F40004DE076480190E0790090237AA27929002B
:103F5000C9B27348FFF733FC41E000200090637959
:103F60002279E1796E48FFF77BFC38E00020019070
:103F7000E0790090237AA2792900C9B26848FFF756
:103F8000CBFC2CE0227961796548FFF726FD26E01D
:103F90002900C9B26248FFF73DFD20E03800C0B2F9
:103FA000072803D03800C0B206280AD1207B009031
:103FB000E37A3200D2B22900C9B25948FFF735FD81
:103FC00008E002215648FFF725FF5548FFF728FF74
:103FD0000228FAD103E05248FFF76CFDFFE74046A4
:103FE0003900C0B2C9B288428CD1A1784C48FFF7E1
:103FF0001EFFE1784A48FFF71FFFA078002811D084
:104000002079012803D161794548FFF72BFE2179FA
:104010004348FFF715FF4248FFF717FF2179C0B269
:104020008142F8D1607A002806D0A37A227BE17A17
:104030003B48FFF779FE03E000213948FFF70BFF0B
:104040000020BDE8F68138B504000D00002C07D033
:1040500040F2FE322F49304800F06AF8AFF300809A
:104060000020A87A01281FD12879002801D0082132
:1040700000E000216879002801D0042200E000223D
:10408000A879002801D0022300E00023E879002865
:1040900001D0012000E000201143194301432248D0
:1040A00050F8240000F056F815F10B01200000F044
:1040B00016F8AB7A2A7A697A1948FFF789FEA87A46
:1040C000012807D1E87A012804D11548FFF7C9FE75
:1040D0000028FAD0286815490860002032BD38B59C
:1040E00004000D00A978104850F82400FFF7CFFE17
:1040F00029780D4850F82400FFF7BFFE69780A4878
:1041000050F82400FFF7BEFE31BD00000000101380
:1041100000001011DC4F0000F05300009D3E000035
:10412000004006405C510000305400004C0100206B
:1041300000B583B00091019202906A4604491820AC
:10414000ABBE002801D1FEF745FC03B000BD00BFA7
:1041500010100200027812F0F00211430170704753
:1041600030B40200D2B2002A08D0022A2CD018D3D0
:10417000042A4FD03BD3052A5FD071E0DFF8A0229C
:10418000126852F48062DFF898321A604FF440727D
:10419000DFF890321A604FF44072DFF88C321A6008
:1041A0005EE0DFF87C22126852F40062DFF87032C1
:1041B0001A604FF44072DFF874321A604FF44072A4
:1041C000DFF86C321A604BE0DFF85422126852F4C8
:1041D0008052DFF84C321A604FF44072DFF85432EC
:1041E0001A604FF44072DFF850321A6038E0DFF89E
:1041F0003022126852F40052DFF824321A604FF471
:104200004072DFF838321A604FF44072DFF8303213
:104210001A6025E0DFF82C22126852F48062DFF881
:1042200024321A604FF40062DFF81C321A604FF437
:104230000062DFF818321A6012E0DFF80822126814
:1042400052F40062DFF8FC311A604FF44072DFF87C
:1042500000321A604FF44072DFF8F8311A60FFE75D
:10426000DFF8F4210300DBB252F82320D27812F0F9
:10427000F302DFF8E4310400E4B253F82430DA70DA
:10428000DFF8D4210300DBB252F823209278DFF864
:10429000C8310400E4B253F824309A70DFF8BC212E
:1042A0001368DFF8BC2153430A01B3FBF2F2140098
:1042B000A4B2B4F5005F01DB41F6FF72B3FBF1F38A
:1042C000110089B2B3EB0113DFF88C110400E4B2E2
:1042D00051F824100C7814F0E004C2F304210C43CC
:1042E000DFF874110500EDB251F825100C70DFF8FD
:1042F00068110400E4B251F824104A70DFF8581134
:104300000200D2B251F82210897A11F0E00113F0C4
:104310001F030B43DFF840110200D2B251F8221004
:104320008B72DFF834110200D2B251F82210097CEE
:1043300051F08801DFF820210300DBB252F823207E
:104340001174DFF814110200D2B251F82210C978AA
:1043500051F00C01DFF80021C0B252F82000C1700A
:1043600030BC7047DFF8F0100200D2B251F82210D2
:1043700009798906F6D5DFF8E010C0B251F82000BF
:10438000C0797047344A0300DBB252F82320127917
:104390001206F7D5304AC0B252F82000C1717047FA
:1043A00080B50020FFF7DEFF0100C9B20020FFF753
:1043B000E9FF01BD80B50120FFF7D4FF0100C9B2BC
:1043C0000120FFF7DFFF01BD80B50220FFF7CAFF24
:1043D0000100C9B20220FFF7D5FF01BD80B503205F
:1043E000FFF7C0FF0100C9B20320FFF7CBFF01BDFB
:1043F00080B502210220FDF76BFD0420FFF7B2FF1C
:104400000100C9B20420FFF7BDFF01BD80B5052042
:10441000FFF7A8FF0100C9B20520FFF7B3FF01BDF8
:10442000348004403C900440389004400CB0044078
:1044300010B0044008C004400CC0044040B0044028
:1044400044B004402880044064D0044060D004405C
:1044500024D0044020D004401C000020540100203F
:1044600040420F000020814908608048804A814B0B
:10447000C0E902237D4800220023C0E904237B48D1
:1044800000220023C0E9062300207B4908607A4807
:104490007A4A7B4BC0E90223774800220023C0E917
:1044A0000423754800220023C0E90623C82075496B
:1044B00008607448744A754BC0E9022371480022B1
:1044C0000023C0E904236F4800220023C0E906232B
:1044D0007047F8B5070065480068C71B6348406827
:1044E0003818624948606148066ABE1B5F48076227
:1044F0006748B0F90000FDF7F3FE04000D00380036
:10450000FDF7EEFE594AD2E90223FDF76DFB2200CA
:104510002B00FDF7ADFA04000D003000FDF7E0FEC2
:10452000524AD2E90623FDF75FFB22002B00FDF77C
:104530009FFAFDF72BFC574908805648B0F9000058
:10454000FEF72CFDF1BDF8B507004B480068C71B0E
:10455000494840683818484948604748066ABE1BC1
:104560004548076244480068FDF7BAFE04000D00A4
:104570003800FDF7B5FE404AD2E90223FDF734FBCF
:1045800022002B00FDF774FA04000D003A48406841
:10459000FDF7A6FE384AD2E90423FDF725FB2200E9
:1045A0002B00FDF765FA04000D003000FDF798FEC2
:1045B000314AD2E90623FDF717FB22002B00FDF755
:1045C00057FAFDF7E3FB344908803348B0F900108F
:1045D0000620FEF7BFFCF1BDF8B5070029480068CA
:1045E000C71B284840683818264948602548066A8D
:1045F000BE1B2448076223480068FDF771FE0400D3
:104600000D003800FDF76CFE1E4AD2E90223FDF7CB
:10461000EBFA22002B00FDF72BFA04000D001948DD
:104620004068FDF75DFE174AD2E90423FDF7DCFA86
:1046300022002B00FDF71CFA04000D003000FDF7EE
:104640004FFE104AD2E90623FDF7CEFA22002B00D6
:10465000FDF70EFAFDF79AFB104908800F48B0F9F4
:1046600000100720FEF776FCF1BD0000D00000200E
:1046700048E17A14AE47D13FF8000020FCA9F1D2FE
:104680004D62503F200100207B14AE47E17A943FF9
:10469000CC000020AA9B0020AC9B0020AE9B0020F9
:1046A0000000000000000000002F000000000700D4
:1046B000070000147F147F1400242A7F2A1200624E
:1046C00064081323003649552250000005030000FA
:1046D00000001C224100000041221C000014083E82
:1046E00008140008083E0808000000A06000000848
:1046F000080808080000606000000020100804029C
:10470000003E5149453E0000427F40000042615159
:104710004946002141454B31001814127F100027F3
:1047200045454539003C4A494930000171090503B6
:1047300000364949493600064949291E00003636E7
:10474000000000005636000000081422410000144A
:104750001414141400004122140800020151090627
:1047600000324959513E007C1211127C007F4949A8
:104770004936003E41414122007F4141221C007FD9
:1047800049494941007F09090901003E4149497AE7
:10479000007F0808087F0000417F41000020404161
:1047A0003F01007F08142241007F40404040007FCD
:1047B000020C027F007F0408107F003E4141413E11
:1047C000007F09090906003E4151215E007F091959
:1047D00029460046494949310001017F0101003F56
:1047E0004040403F001F2040201F003F4038403FD6
:1047F000006314081463000708700807006151493A
:10480000454300007F41410000552A552A550000CC
:1048100041417F000004020102040040404040404A
:10482000000001020400002054545478007F4844E2
:10483000443800384444442000384444487F003819
:104840005454541800087E0901020018A4A4A47C42
:10485000007F080404780000447D4000004080840C
:104860007D00007F102844000000417F4000007C54
:1048700004180478007C0804047800384444443860
:1048800000FC242424180018242418FC007C0804AC
:10489000040800485454542000043F444020003C85
:1048A0004040207C001C2040201C003C4030403C0C
:1048B000004428102844001CA0A0A07C004464549C
:1048C0004C44141414141414017070477CB5060081
:1048D000A2215248FFF7F8FF5148D0E90023CDE963
:1048E000002300F08FF869464C4800F0E2F84D488C
:1048F000006850F478504B4908603000C0B200287E
:1049000036D0F6B2012E0AD0022E0ED0032E12D0CF
:10491000042E16D0052E1AD0072E1ED023E0042414
:104920000E25414800F07FF922E0042414253F4879
:1049300000F079F91CE0042418253D4800F073F9D3
:1049400016E004241F253B4800F06DF910E0032415
:104950001825394800F067F90AE003241C25374878
:1049600000F061F904E003241C25344800F05BF9F1
:104970002900C9B2103132204143022091FBF0F0EE
:104980002100C9B2491C90FBF1F02D4908602C4868
:10499000006840082B49086080202B49087014F0FB
:1049A00007042A4804702A4800682949096851F414
:1049B0007021274A1160224909681E22B1FBF2F1D9
:1049C000090411F4702151F09871224A11602049B4
:1049D000086015F01F0555F040051F4805701F4879
:1049E00000788006FBD51D4800784006FBD50020E6
:1049F0001549087019480078C0B2C0F38100032837
:104A0000F8D173BDF8B568461549102200F04EF98B
:104A100069460020FFF717FB05B000BD00E0074026
:104A2000005400003880044088520000A05200006A
:104A3000B8520000D0520000E852000000530000BD
:104A40005001002054010020004006400440064070
:104A500000F0014044800440054006400640064006
:104A60002853000010B504000021621C594802437D
:104A70001170200000F0B4F80128FAD110BD10B573
:104A800004004021621C534802431170200000F0D2
:104A9000A7F80428FAD110BD10B504006021621CEB
:104AA0004C4802431170200000F09AF88028FAD197
:104AB00010BD38B504000D00200000F091F8C0B220
:104AC000012804D0042809D080280FD01DE02878C0
:104AD000C00602D52000FFF7D2FF16E0288810F4A8
:104AE000837F02D02000FFF7BDFF0EE0288840F250
:104AF0000111084208D12000FFF7B4FF2878C00652
:104B000002D52000FFF7BBFFFFE7B5F90000012841
:104B10000FD0022819D0042821D008280DD0102841
:104B200013D020281BD0802819D0B0F5807F08D062
:104B30004DE02000FFF796FF49E02000FFF79FFFC0
:104B400045E02000FFF7A8FF41E02348006830F06F
:104B50000400214908606078009030BF37E069792F
:104B60008901A21C1D4802431170A879C000A11C34
:104B700051F08C510870E8784001A11C51F094511B
:104B8000087028790001A11C51F090510870B5F906
:104B90000000042801D100200BE0B5F90000202816
:104BA00001D1022005E00420A978A21C52F0815214
:104BB0001170611C51F0815108700748006850F075
:104BC0000400054908606078009030BFFFE70020CE
:104BD00032BD00000000901210ED00E00000101344
:104BE000C078704741F244010144DFF8A40001435A
:104BF0000868C0B27047C9B28904DFF89820104332
:104C0000016070471CB5040020790090E378A27819
:104C10006178DFF8880000F08DF82178DFF87C00FB
:104C2000FFF7E9FF13BD1CB50400002C08D1CE220C
:104C3000DFF86C10DFF86C00FFF77AFAAFF3008052
:104C400007200090072301220021DFF8500000F028
:104C500071F82000FFF745F914F11100FFF7D2FFBA
:104C600014F10E010020FFF73AFA00F005F8DFF822
:104C700038100860002016BD10B50748FFF789F806
:104C800004000648FFF7AEFF401CB4FBF0F010BD77
:104C90000000301E00001019004006400070044063
:104CA000504F0000F853000034000020103A07D3A2
:104CB00030B4B1E83810103AA0E83810F9D230BC5E
:104CC000530724BFB1E80810A0E8081044BF51F80A
:104CD000043B40F8043BD20724BF31F8022B20F8F4
:104CE000022B44BF0B7803707047121F17D35B0071
:104CF00009D151F8043B20F8023B1B0C121F20F88D
:104D0000023BF6D20BE051F8043B00F8013B1B0AD2
:104D100020F8023B1B0C121F00F8013BF3D238BFF6
:104D2000121D521E24BF11F8013B00F8013BF8D8B8
:104D30007047000030B4029C41F244054559ADB2C1
:104D4000C9B255EA0175D2B2120612F070622A4356
:104D5000DBB21B0513F470031A43E4B2240414F409
:104D60007024224341F24401425030BC704700009D
:104D7000012210F01F018A40384940B2400941F831
:104D80002020704780B5364A126852F40002344B36
:104D90001A60344A126892089200324B1A6049F63F
:104DA00040425143304A0300DBB21B01D1502E492F
:104DB0000200D2B212011144C96851F001012A4A1D
:104DC0000300DBB21B011A44D16027490200D2B2B2
:104DD00012011144896851F00301234A0300DBB238
:104DE0001B011A449160303040B2FFF7C1FF01BD92
:104DF00080B51E48006850F001001C49086002217F
:104E00000220FDF765F81A48FEF76EF81949088088
:104E10001948FEF769F8194908801648B0F90000EA
:104E2000FFF791FB1548B0F90000FFF7D5FB01BD76
:104E30001348006850F0010011490860704710489D
:104E4000006850F001000E49086070470D48006886
:104E500050F001000B4908607047000000E100E0DD
:104E60003C80044000700340007103400C7103401B
:104E700000900340A09B002000A00340A29B0020C4
:104E80001C7103403C710340BFF34F8FBFF36F8F22
:104E90000020274908602748006850F40030254961
:104EA0000860BFF34F8FBFF36F8F704710B40020BF
:104EB00021490860BFF34F8F20480168C1F34E328B
:104EC000C1F3C90343F6E07010EA421050EA837060
:104ED0001B4C20601800431E0028F3D11000421E16
:104EE0000028EDD1BFF34F8F1248006850F4803096
:104EF00010490860BFF34F8FBFF36F8F10BC70472E
:104F000080B51048006850F470000E4908604CF2FB
:104F100020500D4908804DF628100B4908804FF4A9
:104F2000E9700A490880FFF7AFFFFFF7BFFF01BD37
:104F300050EF00E014ED00E084ED00E080ED00E0D3
:104F400060EF00E088ED00E00E2005400020054005
:104F5000443A5C50726F6A6563745C4D656E74614F
:104F60006C6C79207265746172646564206361722F
:104F70005C4B56353820466F72206D656E74616CDF
:104F80006C79207265746172646564206361725C1F
:104F90004B56353820466F72206D656E74616C6CAF
:104FA0007920726574617264656420636172205651
:104FB000302E3337315C4C51757365725C73797385
:104FC00074656D5C66736C5F636C6F636B5F4D4B98
:104FD0005635384632342E6300000000443A5C50A7
:104FE000726F6A6563745C4D656E74616C6C792078
:104FF0007265746172646564206361725C4B5635DE
:105000003820466F72206D656E74616C6C79207209
:1050100065746172646564206361725C4B563538F7
:1050200020466F72206D656E74616C6C79207265BC
:10503000746172646564206361722056302E333768
:10504000315C4C51757365725C73797374656D5C1A
:1050500066736C5F636C6F636B5F6D616E616765D8
:10506000722E630080B50420FFF730FCFBF76CFE66
:10507000FCF714FF5FF4E1310420FFF771F8FDF74E
:1050800057FFFDF737FFFFF7EDF91048FDF7ACFECE
:105090000F48FDF7A9FE64210020FFF773FEFBF720
:1050A000E9FFFBF7C9FF4FF4FA70FBF7CBFE3220A4
:1050B000FBF7C8FE62B601210620FCF709FFFCF7EA
:1050C000B0F9FFF706FAFBF79BF9F8E70090034009
:1050D00000A0034080B50E4801680E4800688007B4
:1050E00014D5002912D0D1E90423521C73F1FF33E7
:1050F000C1E904238869002808D0486A002802D042
:105100000120086202E0C8698969884701BD000082
:105110004801002010E000E00C480D49884210D002
:10512000002006E00A4951F82010084A42F82010F1
:10513000401C0849B0EB910FF4D3044806490860BD
:1051400002E0034804490860704700BF0000000007
:10515000000000000000000008ED00E00001010375
:105160000404040400010203040404040101020114
:105170000101010100010103040404040001010311
:1051800004050606040404040405060604040404D5
:1051900004050607060606060606060619E050F888
:1051A000042BD30744BFA9F101039A18091F002358
:1051B000042942F8043BF9D25FEA817C134604D506
:1051C0004FF0000CA2F800C09B1CC90744BF00218F
:1051D000197050F8041B0029E1D1704710B5074938
:1051E00079441831064C7C44163404E00A68081DE2
:1051F000114488470146A142F8D110BD2C0000009F
:10520000380000004EF68851CEF20001086840F4E4
:1052100070000860BFF34F8FBFF36F8F4FF00070C7
:10522000E1EE100A7047000075FFFFFFE49A0000EE
:10523000D00000200000000000F00DF8002801D090
:10524000FFF7CCFFAFF300800020AFF30080FFF743
:1052500009FF00F002F80120704700F001B80000DB
:1052600007463846FDF7BAFBFBE7000072B6034875
:1052700080470348804762B602480047014F00005C
:1052800019510000E55300008000010000000600F5
:1052900000000003080001000003000101050000F8
:1052A0008000010000000300000000041400010061
:1052B000000300010207000080000100000003005D
:1052C00000000004180001000003000102070000B4
:1052D0008000010000000300000000041F00010026
:1052E000000300010309000080000100000003002A
:1052F0000000000318000100000300010309000082
:105300008000010000000600000000031C000100F6
:1053100000030001030900008002DC020005B8055B
:1053200080079508000A710B80F0FA020000000067
:10533000000200000000000043616D6572612049B9
:105340006D616765000000004C3A25303464202010
:105350002025303464000000523A25303464202087
:10536000202530346400000053706565642041647A
:105370006A75737400000000204D656469616E3ABF
:10538000253034640000000043757272656E743A13
:105390002530346400000000536572766F2041644C
:1053A0006A757374000000004D6F746F7250494449
:1053B0002041646A7573740080B5FFF78BFEBFF3FC
:1053C0004F8FBFF36F8F01BDFFFFFFFFFFFFFFFF99
:1053D000FFFFFFFFFEFFFFFF5049442041646A7555
:1053E00073740000AFF30080FFF70CFFFFF724FF9A
:1053F000746573740000000074657374000000002D
:1054000000010000000000002530336400000000AF
:10541000503A253034640000493A253034640000A5
:10542000443A25303464000041637475616C0000B7
:0854300000500640FFF7FEBF2B
:020000042000DA
:1000000000093D000080000000F00F4040F00F406C
:1000100080F00F40C0F00F4000F10F4000A00640FC
:1000200000B0064000C0064000D0064000A00E40D0
:1000300000B00E400000400110B4204B0400E4B2B8
:1000400064012344196111004904490C1B4B04004D
:10005000E4B264012344D982D205D20D17490300CA
:10006000DBB25B011944CA8315490968012212FAFF
:1000700000F008431249086010BC704770B40020BB
:10008000002000220023002012E00E4CBC2505FBBE
:1000900000F52C44645C0C4D5E2606FB02F63544EC
:1000A000EC545B1C891CBC29EFDB0023521C801C18
:1000B000782801DA0021F6E770BC70470090004014
:1000C0000C800040580100207859002014050000E1
:1000D0000000000000000000000000000000000020
:1000E0000000000000000000000000000000000010
:1000F0000000000000000000000000000000000000
:1001000000000000000000000000000000000000EF
:049BB00000000000B1
:04000005000053E5BF
:00000001FF
